:020000040000FA
:060000000A128A110C280F
:10000800FE00030EF0000A08F1000A168A11652D99
:100018000A128A110F288313C230FD001430FE0023
:10002800C730FF00A03084000A168A1169240A121A
:100038008A117030FD000830FE000430FF006C307B
:1000480084000A168A1169240A128A110A128A116E
:10005800FF270A128A11FB0083160313C201C3018A
:10006800C401C50183120313DF01E001E101E201CC
:10007800E301E401E501E601E701E801E901EA013C
:10008800EB01F901FA0183010A128A15092B83127F
:100098000313DE000A168A1160260A128A11333009
:1000A800831203136E06031D5A285B28142A0A16A6
:1000B8008A1154240A128A115C3083120313A00097
:1000C8009130A1008030A2000A168A1132250A1246
:1000D8008A117A0883120313D8005807A03E8400B7
:1000E80083130008A000840A00088403A100863056
:1000F800A2000A168A1132250A128A115630831272
:100108000313A0009130A100C030A2000A168A1182
:1001180032250A128A11C630F8000A30F20000307F
:10012800F300831203136908D800D9015808F400B2
:100138005908F5000A168A11BE260A128A11720891
:10014800303E0A168A1178240A128A11C730F8003C
:100158000A30F2000030F300831203136908D80054
:10016800D9015808F4005908F5000A168A11092619
:100178000A128A117208303E0A168A1178240A1265
:100188008A11C830F8003A300A168A1178240A12FF
:100198008A11C930F8000A30F2000030F3008312E7
:1001A80003136A08D800D9015808F4005908F50063
:1001B8000A168A11BE260A128A117208303E0A16D9
:1001C8008A1178240A128A11CA30F8000A30F2001B
:1001D8000030F300831203136A08D800D9015808C5
:1001E800F4005908F5000A168A1109260A128A111C
:1001F8007208303E0A168A1178240A128A11FF30D2
:1002080083120313EE00333083120313DA00BB307A
:10021800D900DF30D800D80B0F29D90B0F29DA0BFA
:100228000F290A168A1154240A128A11EF308312F0
:100238000313A0009030A1008030A2000A168A1192
:1002480032250A128A11743083120313A0009130E8
:10025800A100C030A2000A168A1132250A128A119A
:10026800463083120313A0009030A1009030A20002
:100278000A168A1132250A128A1183120313690891
:10028800D800D9015808F2005908F3003C30F400AE
:100298000030F5000A168A110D250A128A118312F8
:1002A80003136A087207DF00003003180130730770
:1002B800E0006008E8005F08E7006708F2006808E7
:1002C800F3000030F31BFF30F400F50001300A1290
:1002D8008A1143270A128A11750883120313B10081
:1002E8007408B0007308AF007208AE003E30AD006D
:1002F800D730AC000A30AB003D30AA000A128A1190
:1003080001240A128A11831203132D08C7002C082E
:10031800C6002B08C5002A08C4000A128A15312015
:100328000A128A11831203134508E6004408E500FF
:100338006708F2006808F3000030F31BFF30F40090
:10034800F50001300A128A1143270A128A1175082A
:1003580083120313B1007408B0007308AF00720869
:10036800AE003D30AD00F530AC00C230AB008F3090
:10037800AA000A128A1101240A128A11831203138D
:100388002D08C7002C08C6002B08C5002A08C40081
:100398000A128A1531200A128A118312031345089A
:1003A800E4004408E3006708F2006808F30000303E
:1003B800F31BFF30F400F50001300A128A114327BD
:1003C8000A128A11750883120313B1007408B00069
:1003D8007308AF007208AE003E30AD00DC30AC00F0
:1003E8002830AB00F630AA000A128A1101240A123A
:1003F8008A11831203132D08C7002C08C6002B0886
:10040800C5002A08C4000A128A1531200A128A1166
:10041800831203134508E2004408E100121507158A
:100428001F305E06031D192A1A2A1E2A12110711E7
:100438004430EF006908D800D9015808F20059087B
:10044800F3003C30F4000030F5000A168A110D253F
:100458000A128A11831203136A087207E700003030
:10046800031801307307E80008307A0203183D2AA0
:100478003E2A952A65085F02D8006608031C660AAA
:100488006002D90059086802031D4C2A58086702FF
:10049800031C4F2A502A5C2A8330A0009130A10007
:1004A8008A30A2000A168A1132250A128A11452BAF
:1004B8006509D8006609D900D80A0319D90A61085C
:1004C8005802DA006208031C620A5902DB005F085E
:1004D8005A07DC0060080318600A5B07DD005D0846
:1004E8006802031D792A5C086702031C7C2A7D2A9E
:1004F800892A6230A0009130A1008A30A2000A1631
:100508008A1132250A128A11452B5030A0009130E9
:10051800A1008A30A2000A168A1132250A128A110D
:10052800452B08307A06031D9A2A9B2A282B670830
:10053800F2006808F300F401F50100300A128A118C
:1005480043270A128A11750883120313CF0074080F
:10055800CE007308CD007208CC005F08F200600876
:10056800F300F401F50100300A128A1143270A1238
:100578008A11750883120313CB007408CA00730824
:10058800C9007208C8005F08F2006008F300F401AF
:10059800F50100300A128A1143270A128A117508D8
:1005A80083120313B1007408B0007308AF00720817
:1005B800AE003E30AD00CC30AC00CC30AB00CD301E
:1005C800AA000A128A1101240A128A11831203133B
:1005D8002D08C7002C08C6002B08C5002A08C4002F
:1005E8000A168A11E9240A128A118312031347088A
:1005F800D3004608D2004508D1004408D0000A12AA
:100608008A15A7200A128A11031C0B2B0C2B1A2BF4
:100618003B3083120313A0009130A1008A30A2005E
:100628000A168A1132250A128A11452B5030831274
:100638000313A0009130A1008A30A2000A168A1183
:1006480032250A128A11452B09307A06031D2D2BF3
:100658002E2B3A2B8830A0009130A1008A30A200BE
:100668000A168A1132250A128A11452BC930A000B0
:100678009030A1008030A2000A168A1132250A1291
:100688008A11C630F8000A30F2000030F3008312F5
:1006980003136908D800D9015808F4005908F5006F
:1006A8000A168A11BE260A128A117208303E0A16E4
:1006B8008A1178240A128A11C730F8000A30F20029
:1006C8000030F300831203136908D800D9015808D1
:1006D800F4005908F5000A168A1109260A128A1127
:1006E8007208303E0A168A1178240A128A11C83014
:1006F800F8003A300A168A1178240A128A11C93089
:10070800F8000A30F2000030F300831203136A087D
:10071800D800D9015808F4005908F5000A168A11BA
:10072800BE260A128A117208303E0A168A117824E7
:100738000A128A11CA30F8000A30F2000030F300B9
:10074800831203136A08D800D9015808F40059081D
:10075800F5000A168A1109260A128A117208303E13
:100768000A168A1178240A128A1183120313690857
:10077800031DBF2BC02B002C6A08031DC42BC52BDF
:10078800002C0A168A1154240A128A1183120313A0
:10079800071187140030A0009030A1008030A2001B
:1007A8000A168A1132250A128A1176308312031327
:1007B800A0009030A100C030A2000A168A1132258C
:1007C8000A128A11333083120313DA00BB30D900BE
:1007D800DF30D800D80BEE2BD90BEE2BDA0BEE2B33
:1007E8008312031387100130EF001130EE000A1650
:1007F8008A1154240A128A110800831203132D083F
:10080800B7008030B7052D08B2003207BD00AC1F15
:100818000E2C0F2C102C3D143D080319142C152CEC
:10082800242C3D0A031D192C1A2C222C0030AD0053
:100838000030AC000030AB000030AA00AC172C2C04
:100848000030AD000030AC000030AB000030AA0032
:1008580031088039B7063108B2003207B800B01F36
:10086800362C372C382C3814380803193C2C3D2CDE
:100878004C2C380A031D412C422C4A2C0030B10064
:100888000030B0000030AF000030AE00B017542C7C
:100898000030B1000030B0000030AF000030AE00D2
:1008A80038080319582C592C5E2C3D08031D5D2C63
:1008B8005E2C672C0030AD000030AC000030AB007F
:1008C8000030AA00422F2A08F20030080A128A15BE
:1008D80008200A128A11730883120313C3007208CE
:1008E800C2004208B200B301B401B5013508BC002A
:1008F8003408BB003308BA003208B9004308B20014
:10090800B301B401B5013508C1003408C00033088B
:10091800BF003208BE002B08F2002F080A128A1501
:1009280008200A128A11730883120313C30072087D
:10093800C2004208B200B301B401B5013208B907D8
:10094800330803110318013E0319AB2CBA07340806
:1009580003110318013E0319B22CBB073508031114
:100968000318013E0319B92CBC074308B200B301B0
:10097800B401B5013208BE07330803110318013E5C
:100988000319C72CBF07340803110318013E0319C4
:10099800CE2CC007350803110318013E0319D52CC6
:1009A800C1072C08F2002E080A128A1508200A121C
:1009B8008A11730883120313C3007208C200420825
:1009C800B200B301B401B5013208B9073308031105
:1009D8000318013E0319F12CBA0734080311031850
:1009E800013E0319F82CBB07350803110318013E13
:1009F8000319FF2CBC074308B200B301B401B501C9
:100A08003208BE07330803110318013E03190D2DE0
:100A1800BF07340803110318013E0319142DC0073A
:100A2800350803110318013E03191B2DC1070830AF
:100A3800B2000310B90DBA0DBB0DBC0DB20B1D2DC4
:100A48002B08F2002E080A128A1508200A128A11A9
:100A5800730883120313C3007208C2004208B2006D
:100A68004308B300B401B5013208B90733080311CC
:100A78000318013E0319412DBA073408031103185E
:100A8800013E0319482DBB07350803110318013E21
:100A980003194F2DBC072A08F2002F080A128A15DD
:100AA80008200A128A11730883120313C3007208FC
:100AB800C2004208B2004308B300B401B5013208CD
:100AC800B907330803110318013E03196C2DBA073F
:100AD800340803110318013E0319732DBB073508A9
:100AE80003110318013E03197A2DBC070830B20020
:100AF8000310B90DBA0DBB0DBC0DB20B7C2D2A0825
:100B0800F2002E080A128A1508200A128A117308A0
:100B180083120313C3007208C2004208B2004308DC
:100B2800B300B401B5013208B9073308031103183B
:100B3800013E0319A02DBA07340803110318013E1A
:100B48000319A72DBB07350803110318013E031924
:100B5800AE2DBC072B08F20030080A128A150820AF
:100B68000A128A11730883120313C3007208C200A1
:100B78004208B2004308B300B401B5013208BE0709
:100B8800330803110318013E0319CB2DBF0734089E
:100B980003110318013E0319D22DC00735080311AC
:100BA8000318013E0319D92DC1072C08F2002F089C
:100BB8000A128A1508200A128A117308831203136D
:100BC800C3007208C2004208B2004308B300B4016F
:100BD800B5013208BE07330803110318013E031993
:100BE800F62DBF07340803110318013E0319FD2D24
:100BF800C007350803110318013E0319042EC10765
:100C08002C08F20030080A128A1508200A128A11E4
:100C1800730883120313C3007208C2004208B200AB
:100C28004308B300B401B50108300310B20DB30D89
:100C3800B40DB50DFF3E031D192E3208BE0733084B
:100C480003110318013E03192A2EBF0734080311A4
:100C58000318013E0319312EC00735080311031884
:100C6800013E0319382EC1073908B2003A08B3000B
:100C78003B08B4003C08B50018300310B50CB40CA0
:100C8800B30CB20CFF3E031D412E3208BE073308D9
:100C980003110318013E0319522EBF07340803112C
:100CA8000318013E0319592EC0073508031103180C
:100CB800013E0319602EC1070830B2000310B90DB8
:100CC800BA0DBB0DBC0DB20B622E3D083807B20041
:100CD800B301B30D3208823EC20033080318013E47
:100CE800FF3EC300942E0130B2000310BE0DBF0DAD
:100CF800C00DC10DB20B792EBC1F832E842E852EFC
:100D08003E140130B2000310B90DBA0DBB0DBC0D75
:100D1800B20B872EFF30C2070318C30AFF30C30780
:100D2800C01F972E982E772EB801BC1F9C2E9D2E83
:100D3800B92EFF303905B200FF303A05B300FF3055
:100D48003B05B4007F303C05B50035083404330456
:100D580032040319B02EB12EB42E0130B800B92ECA
:100D68003E1CB72EB82EB92EB12E38080319BD2E49
:100D7800BE2EEF2E0130BE07003003180130BF072A
:100D8800003003180130C007003003180130C107D4
:100D9800411CCF2ED02EEF2E3E08B2003F08B300E4
:100DA8004008B4004108B5000130B600350DB50C57
:100DB800B40CB30CB20CB60BDA2E3508C1003408EB
:100DC800C0003308BF003208BE000130C207031854
:100DD800C30A0030C3074308803AFF0080307F020F
:100DE800031DF82EFF304202031CFB2EFC2E072F9A
:100DF8007F3083120313C1008030C0000030BF0071
:100E08000030BE00382F831203134308803AFF00D6
:100E180080307F02031D122F013042020318152F64
:100E2800162F222F003083120313C1000030C00098
:100E38000030BF000030BE00B701382F8312031303
:100E48004208BD00FF30BE05FF30BF057F30C0053A
:100E58000030C1053D1C312F322F332FC0173D08FC
:100E6800B2000310320CC1003708C1044108AD00BC
:100E78004008AC003F08AB003E08AA0008008312F7
:100E88000313A400240803194A2F4B2F5F2FF51FC3
:100E98004E2F4F2F5F2F7209A6007309A700740900
:100EA800A8007509A900A60A0319A70A0319A80A20
:100EB8000319A90A672F7508A9007408A800730800
:100EC800A7007208A6007508740473047204031D51
:100ED8006E2F6F2F782F0030F5000030F4000030AF
:100EE800F3000030F200F82F9630A500862F01306D
:100EF800A50701300310A90CA80CA70CA60CFF3EEF
:100F0800031D7E2FFE302905031D8B2F8C2F7B2F71
:100F1800A62F0130A5070130A607003003180130BD
:100F2800A707003003180130A80700300318013064
:100F3800A90701300310A90CA80CA70CA60CFF3EAA
:100F4800031D9E2FFF302905031DAB2FAC2F8D2FBE
:100F5800B82F0130A5020130A0000310A60DA70D7F
:100F6800A80DA90DA00BB12FA81BBB2FBC2FC22FFA
:100F7800023025020318C12FC22FAD2F2518C52F07
:100F8800C62FCE2FFF30A605FF30A7057F30A80556
:100F9800FF30A9050310A50C2508A000A101A20196
:100FA800A30118300310A00DA10DA20DA30DFF3E43
:100FB800031DD62F2008A6042108A7042208A80488
:100FC8002308A90424080319EA2FEB2FF02FF51F93
:100FD800EE2FEF2FF02FA9172908F5002808F400A5
:100FE8002708F3002608F2000800831603130608F2
:080FF8003F38860008000134B7
:10100800013400341134013483120313A400A00105
:10101800A1017208F400F5017408A2007508A30084
:10102800241C172818281E282208A0070318A10A1C
:101038002308A10701300310A20DA30DFF3E031DD5
:101048001F280310A40C2408031D2B282C2814285F
:101058002108F3002008F20008000310831203138C
:10106800460D470DF7007708031D3B283C28452807
:101078000030C7000030C6000030C5000030C40092
:10108800A6284408C8004508C9004608CA004708F9
:10109800CB001F300310CB0CCA0CC90CC80CFF3E88
:1010A800031D4E284808F600C617FF30C405FF3058
:1010B800C505FF30C6050030C7059630F702F71F93
:1010C800662867287F287708803A973E03186D2896
:1010D8006E286F283C2801300310C70CC60CC50CBD
:1010E800C40CFF3E031D70280130F707031D7D283F
:1010F8007E286F28962820307702031C84288528AC
:1011080091283C280130C8000310C40DC50DC60D38
:10111800C70DC80B88280130F7027708031D9528EA
:1011280096288628760803199A289B28A628C40991
:10113800C509C609C709C40A0319C50A0319C60A95
:101148000319C70A08000030831203134C05D400A2
:1011580000304D05D50080304E05D6007F304F0554
:10116800D7005708560455045404031DBC28BD284D
:10117800C5280030CF000030CE000030CD00003050
:10118800CC0000305005D40000305105D500803027
:101198005205D6007F305305D7005708560455042A
:1011A8005404031DD828D928E1280030D300003082
:1011B800D2000030D1000030D000CF1FE428E5284D
:1011C80009290030D4000030D5000030D600803026
:1011D800D7004C08D4024D08031C4D0FF428F528FD
:1011E800D5024E08031C4E0FFA28FB28D6024F08DA
:1011F800031C4F0F00290129D7025708CF005608B2
:10120800CE005508CD005408CC00D31F0C290D2959
:1012180031290030D4000030D5000030D6008030AD
:10122800D7005008D4025108031C510F1C291D294E
:10123800D5025208031C520F22292329D60253082B
:10124800031C530F28292929D7025708D300560809
:10125800D2005508D1005408D0008030CF06803025
:10126800D30653084F02031D432952084E02031D9B
:10127800432951084D02031D432950084C02031805
:1012880046294729492903104A29031408008312CB
:101298000313A80022306E06031D532954295D2923
:1012A8000A168A1154240A128A15FF30831203136E
:1012B800EE0037302806031D622963297F290A16A4
:1012C8008A1154240A128A150130F9070530790663
:1012D800031D6F2970297129F90104308312031342
:1012E800A700CF30A6000130A500A50B7929A60BD1
:1012F8007929A70B7929913083120313A000903024
:10130800A1008030A2000A168A1132250A128A1515
:10131800C030F8002A300A168A1178240A128A1571
:10132800790883120313A5002507B83E84008313A8
:101338000008A000840A00088403A100C230A200AB
:101348000A168A1132250A128A150530F200003071
:10135800F3007908013EF400003003180130F5006D
:101368000A168A1109260A128A15720883120313AB
:10137800A5002507B83E840083130008A000840A4E
:1013880000088403A1009230A2000A168A113225AF
:101398000A128A150530F2000030F3007908023E7F
:1013A800F400003003180130F5000A168A110926E6
:1013B8000A128A15720883120313A5002507B83E7E
:1013C800840083130008A000840A00088403A10095
:1013D800D230A2000A168A1132250A128A1508008C
:1013E80083120313A80011306E06031DFC29FD2982
:1013F800062A0A168A1154240A128A15FF30831203
:101408000313EE0037302806031D0B2A0C2A282A5E
:101418000A168A1154240A128A150130FA070C3068
:101428007A06031D182A192A1A2AFA010430831287
:101438000313A700CF30A6000130A500A50B222A70
:10144800A60B222AA70B222A353083120313A000E9
:101458009030A1008030A2000A168A1132250A12A3
:101468008A15C030F8002A300A168A1178240A1220
:101478008A150A307A020318422A432A832A7A08EC
:1014880083120313A5002507A03E840083130008D8
:10149800A000840A00088403A100C130A2000A1633
:1014A8008A1132250A128A157A0883120313A500B5
:1014B8002507A23E840083130008A000840A0008C0
:1014C8008403A1009130A2000A168A1132250A125B
:1014D8008A157A0883120313A5002507A43E840001
:1014E80083130008A000840A00088403A100D130F7
:1014F800A2000A168A1132250A128A15082B0A3008
:101508007A06031D882A892AC72A7A0883120313B0
:10151800A5002507A03E840083130008A000840AC4
:1015280000088403A100C130A2000A168A113225DE
:101538000A128A157A0883120313A5002507A23E0A
:10154800840083130008A000840A00088403A10013
:101558009130A2000A168A1132250A128A158316BA
:101568000313200883120313A00083160313210812
:1015780083120313A100D130A2000A168A11322562
:101588000A128A15082B0B307A06031DCC2ACD2A9D
:10159800082B7A0883120313A5002507A03E8400B0
:1015A80083130008A000840A00088403A100C13046
:1015B800A2000A168A1132250A128A158316031305
:1015C800200883120313A000831603132108831233
:1015D8000313A1009130A2000A168A1132250A12BB
:1015E8008A1583160313220883120313A000831697
:1015F8000313230883120313A100D130A2000A1693
:101608008A1132250A128A1508000A168A118D24B1
:101618000A128A15563083120313A0009030A100D5
:101628008130A2000A168A1132250A128A152A3038
:1016380083120313A0009130A100C530A2000A163E
:101648008A1132250A128A15663083120313A00004
:101658009030A1009130A2000A168A1132250A1290
:101668008A1501300A168A1123270A128A15831649
:101678000313C9002F304906031D432B442B452B68
:10168800512B413083160313C700ED30C600C60B3B
:101698004B2BC70B4B2B502B352B0A168A11542476
:1016A8000A128A150A168A1191270A128A15013018
:1016B8000A168A1123270A128A1583160313C900EA
:1016C800823083160313C700DD30C600C60B6A2BB1
:1016D800C70B6A2B9930831603134906031D752B14
:1016E800762B902B831203136F03031D7C2B7D2B0A
:1016F800902B0230EF002230EE00063083160313E1
:10170800C8001330C700AD30C600C60B892BC70B05
:10171800892BC80B892B282C99308316031349066B
:10172800031D972B982BD42B0230831203136F06BB
:10173800031D9F2BA02BD42B0330EF000A168A1110
:1017480054240A128A15AB3083120313A000903078
:10175800A1008030A2000A168A1132250A128A15C1
:10176800E43083120313A0009030A100C030A2001F
:101778000A168A1132250A128A15173083120313A2
:10178800A0009130A1009030A2000A168A113225DB
:101798000A128A150A128A153C240A128A15812B04
:1017A8002F30831603134906031DDB2BDC2BE92B93
:1017B8004430831203136F06031DE32BE42BE92B3C
:1017C8000430EF0012150715282C282C8316031354
:1017D80049080A128A15F4210A128A155B2B831606
:1017E800031349080A128A154B210A128A155B2B22
:1017F80001300A168A1123270A128A158316031341
:10180800C9002F304906031D0A2C0B2C122C04305A
:1018180083120313EF003330EE005B2B1F304906B1
:10182800031D172C182C382C013083120313EF00DA
:101838001130EE005B2B8316031349080A128A1134
:101848004B200A128A155B2B831203136F08013A87
:101858000319EA2B033A0319F32B013A0319FC2B5A
:10186800073A03191F2C5B2B5B2B0A128A110C28D1
:10187800812D213083120313EA00A72D293083120A
:101888000313EA00A72D2D3083120313EA00A72DB6
:101898007908003A0319422C013A03193D2C033AFE
:1018A8000319422C013A0319472C073A0319472C0C
:1018B800A72D83120313E9012B30EA00A72D831209
:1018C8000313E9013230EA00A72D83120313E9015B
:1018D8003930EA00A72D7908003A0319632C013A38
:1018E80003195D2C033A0319632C013A0319692C77
:1018F800073A0319692CA72D83120313E9011A303B
:10190800EA00A72D83120313E9011F30EA00A72D6F
:101918007908003A0319802C013A0319802C033AFC
:101928000319802C013A0319862C073A0319862CCF
:10193800A72D013083120313E9004C30EA00A72DCC
:101948007908003A03199D2C013A03199D2C033A92
:1019580003199D2C013A03199D2C073A03199D2C54
:10196800A72D013083120313E9006030EA00A72D88
:101978007908003A0319B52C013A0319B52C033A32
:101988000319B52C013A0319B52C073A0319B52CDC
:10199800A72D83120313E9012430EA00A72D790843
:1019A800003A0319862C013A0319862C033A0319C5
:1019B800862C013A0319CD2C073A0319CD2CA72DF3
:1019C80083120313E9011D30EA00A72D7908003AB4
:1019D8000319E42C013A0319E42C033A0319E42C03
:1019E800013A0319E42C073A0319E42CA72D8312B2
:1019F8000313E9012E30EA00A72D83120313E9012E
:101A08003530EA00A72D013083120313E900EA01FB
:101A1800A72D7908003A0319012D013A0319FB2C67
:101A2800033A0319012D013A0319072D073A03193F
:101A3800072DA72D83120313E9011230EA00A72D01
:101A480083120313E9011430EA00A72D7908003A3C
:101A58000319242D013A03191E2D033A0319242DC5
:101A6800013A0319242D073A0319242DA72D8312AF
:101A78000313E9010630EA00A72D7908003A031993
:101A88003B2D013A03193B2D033A03193B2D013A2B
:101A980003193B2D073A03193B2DA72D8312031376
:101AA800E9011030EA00A72D83120313E90115306C
:101AB800EA00A72D7908003A0319582D013A0319AD
:101AC800522D033A0319582D013A0319802C073A6D
:101AD8000319802CA72D632C7908003A0319632C6D
:101AE800013A03196F2D033A0319632C013A0319BC
:101AF800632C073A0319632CA72D7A08003A0319B7
:101B08004C2C013A03196F2C033A03198C2C013A17
:101B18000319A42C073A0319BC2C013A0319D32C36
:101B2800033A0319EA2C013A03190D2D0F3A031948
:101B38002A2D013A0319412D033A03195E2D013A62
:101B48000319702DA72D0800831203132308F20030
:101B58008030F2052308A8002807F400A21FB52D3D
:101B6800B62DB72D741474080319BB2DBC2DCC2DBC
:101B7800740A031DC02DC12DC92D0030A3000030EB
:101B8800A2000030A1000030A000A217A301D42DAC
:101B98000030A3000030A2000030A1000030A000F7
:101BA8002708F3008030F305730872060319DD2D4A
:101BB800DE2DDF2D72172708A8002807F300A61FBF
:101BC800E62DE72DE82D731473080319EC2DED2D80
:101BD800FD2D730A031DF12DF22DFA2D0030A700FB
:101BE8000030A6000030A5000030A400A617A70109
:101BF800052E0030A7000030A6000030A5000030F8
:101C0800A4007408730203180A2E0B2E2F2E721FBD
:101C18000E2E0F2E112E8030F2067408F500730870
:101C2800F4007508F3002008F5002408A0007508E2
:101C3800A4002108F5002508A1007508A5002208C0
:101C4800F5002608A2007508A6002308F500270855
:101C5800A3007508A700F5017308A800A9012908C1
:101C6800AB0074082802AA00031CAB032B08803AB7
:101C7800FF0080307F02031D432E1A302A02031C06
:101C8800462E472E802E8312031323082204210494
:101C98002004031D502E522E0130532E0030F50023
:101CA8000030A3000030A2000030A1000030A000E6
:101CB8007308F400862E751C622E632E6C2E750830
:101CC80083120313A8000310280C0138F5006E2EA8
:101CD8000310F50C83120313201C732E742E752E1B
:101CE800F5170130A800230DA30CA20CA10CA00C21
:101CF800A80B772E0130F40773087402031C852E95
:101D0800862E5F2E721B892E8A2ED52E7408031DEF
:101D18008E2E8F2E9A2E003083120313A3000030CC
:101D2800A2000030A1000030A000FF2F831203138F
:101D38002408A007250803110318013E0319A52E3E
:101D4800A107260803110318013E0319AC2EA207A8
:101D5800270803110318013E0319B32EA307231CF8
:101D6800B62EB72E8B2F751CBA2EBB2EC22E750819
:101D7800A8000310280C0138F500C42E0310F50C38
:101D8800201CC72EC82EC92EF5170130A800230D18
:101D9800A30CA20CA10CA00CA80BCB2E0130F407AD
:101DA8008B2F831203132308803AFF002708803AF9
:101DB8007F02031DE92E26082202031DE92E2508AD
:101DC8002102031DE92E240820020318EC2EED2E13
:101DD800442FFF30A800FF30A900FF30AA00FF30D1
:101DE800AB002408AC002508AD002608AE00270883
:101DF800AF002008AC022108031C210F042F052F77
:101E0800AD022208031C220F0A2F0B2FAE02230853
:101E1800031C230F102F112FAF022C08A8072D0821
:101E280003182D0F182F192FA9072E0803182E0F86
:101E38001E2F1F2FAA072F0803182F0AAB072B08DE
:101E4800A3002A08A2002908A1002808A0008030C1
:101E5800F2067503FF3AF5007508031D342F352F78
:101E6800522F0130A007003003180130A1070030BD
:101E780003180130A207003003180130A307522FBE
:101E88002408A0022508031C250FA1022608031C0C
:101E9800260FA2022708031C270FA30223082204E7
:101EA80021042004031D592F5A2F872F7508031D5D
:101EB8005E2F5F2F872F0030A3000030A200003074
:101EC800A1000030A000FF2F0130A8000310A00DD2
:101ED800A10DA20DA30DA80B6A2FF51F742F752F46
:101EE800762F2014751C792F7A2F7E2F0314750DE9
:101EF800F500802F0310F50D74080319842F852F22
:101F0800872F0130F402A21F8A2F8B2F682FF3012D
:101F1800F51F8F2F902F9E2F75087F390319952F46
:101F2800962F992F0130F3009E2F201C9C2F9D2F58
:101F38009E2F962F73080319A22FA32FD52F013098
:101F4800A007003003180130A10700300318013042
:101F5800A207003003180130A307231CB42FB52FA4
:101F6800D52F2008A8002108A9002208AA002308C4
:101F7800AB000130AC002B0DAB0CAA0CA90CA80CC3
:101F8800AC0BBF2F2B08A3002A08A2002908A10028
:101F98002808A000740A0319D22FD32FD52F013097
:101FA800F407740A0319D92FDA2FDF2F7408031DD9
:101FB800DE2FDF2FED2F0030A3000030A20000300D
:101FC800A1000030A0007408031DEB2FEC2FED2FAB
:101FD800F201741CF02FF12FF32FA217F52F7F3089
:101FE800A2057408A8000310280CA300F21FFD2FF7
:101FF800FE2FFF2FA3170800503472346F34673454
:10200800723461346D34203463346F346D34703419
:102018006C346534743465346434003450346C344E
:102028006534613473346534203463346C346F340C
:1020380073346534203464346F346F34723400344C
:10204800573441345334483449344E3447342034B7
:102058004D3441344334483449344E3445342034C3
:102068000034573441345334483449344E344734B7
:102078002034503452344F344734523441344D3480
:102088002034003435343A345334543441345234DF
:102098005434203436343A3450344134553453347B
:1020A8004534003450345234453453345334203496
:1020B8004B344534593420343534203454344F3477
:1020C80020340034573441345334483449344E347E
:1020D800473420344D3441344334483449344E3441
:1020E80045340034523465346D346F347634653495
:1020F800203463346C346F3474346834733400348B
:1021080050344F3457344534523449344E344734BC
:1021180020344F344E34203400345734413454344E
:10212800453452345F344C344534563445344C3499
:102138003A34003444346F346F34723420346934A0
:10214800733420346F34703465346E340034503452
:1021580072346534733473342034533477346934C7
:102168007434633468340034413471347534613400
:102178002034733474346F34723465340034533417
:102188007434613469346E34203477346134733490
:1021980068340034453463346F3463346F347434D2
:1021A80074346F346E3473340034423465346434B8
:1021B80020347334683465346534743473340034CB
:1021C8005334573435343A34203453345434413446
:1021D800523454340034463475346E3463347434B1
:1021E80069346F346E343A340034443465346C34B2
:1021F8006934633461347434653473340034573467
:1022080061347334683420346F346E346C34793408
:102218000034523469346E34733465342B344434A6
:102228007234793400345334573436343A342034E1
:10223800533454344F345034003444347234793481
:1022480020346F346E346C347934003450344F3465
:1022580057344534523420344F344E3400345734D4
:102268006F346F346C3465346E34733400345234E4
:1022780069346E3473346534203400344D34653435
:102288006434693475346D340034573468346934CF
:1022980074346534733400345334703469346E34B0
:1022A80020340034543469346D3465343A3400349D
:1022B800503472346F3467343A34003452346934E9
:1022C8006E347334653400344434613469346C34A6
:1022D80079340034483465346134763479340034E0
:1022E800543449344D3445340034543469346D34ED
:1022F80065340034483469346734683400345734FA
:1023080061347334683400345334703469346E344F
:1023180000344134753474346F3400344C346F34C1
:10232800773400344D34613478340034FF1BA429E9
:1023380083137F1883170008840A0319FF0A08000B
:102348007F087F398A000408840A0319FF0A82007B
:10288000FA308316031392008C148312031312116F
:102890000800831603138801091189100A168A118A
:1028A000B2250A168A110800F20101300A168A11AF
:1028B000A7240A168A110430F7003D30F600F60B03
:1028C0005F2CF70B5F2C642C08007E088A007F08C1
:1028D00082000A168A1165240A168A118000840A69
:1028E00004087D0603190034FF0A0319FE0A692C47
:1028F00083120313A400F20178080A168A11A72490
:102900000A168A11F201F20A8312031324080A1626
:102910008A11A7240A168A1108000A168A11492466
:102920000A168A110A128A11F9270A168A110A163A
:102930008A1140240A168A118B170B17831603136A
:102940008710071183120313871007110800F50081
:102950007218AB2CAF2C831203130915B22C8312FF
:1029600003130911750888008914A630F300F30BCE
:10297000B72C00008312031389101B30F4009E3023
:10298000F300F30BC12CF40BC12C000008006834D9
:1029900091346E349134F934903449349134C334E1
:1029A0009034CE34903433349134D93490340D345F
:1029B00091342134913403349134B83490348D34CB
:1029C000913492349134423491347E34913496343B
:1029D0009134803083120313C7064B08A3004A08C2
:1029E000A2004908A1004808A0004708A70046081F
:1029F000A6004508A5004408A4000A128A15A825C7
:102A00000A168A11831203132308C7002208C6007E
:102A10002108C5002008C4000800F601F701721C57
:102A2000122D132D192D7408F6070318F70A7508CF
:102A3000F70701300310F40DF50DFF3E031D1A2DAD
:102A400001300310F30CF20CFF3E031D212D720820
:102A50007304031D2C2D2D2D0F2D7708F300760800
:102A6000F2000800F2018312031322080A168A11E9
:102A7000A7240A168A11542DF201F20A2108FF0038
:102A8000200884000A168A119A210A168A110A1649
:102A90008A11A7240A168A11013083120313A00792
:102AA0000318A10A0030A107831203132108FF00B5
:102AB000200884000A168A119A210A168A11003AFF
:102AC000031D632D642D3C2D0800831203138C1C01
:102AD0006A2D6B2DAB2D013083160313C207003016
:102AE00003180130C307003003180130C407003059
:102AF00003180130C507203042064E300319430643
:102B000044044504031D852D862DA82D831203132F
:102B10006A0803198C2D8D2D902D0130EA029E2D0F
:102B20006A08031D942D952D9E2D69080319992D72
:102B30009A2D9E2D0130E9023C30EA0000308316C8
:102B40000313C5000030C4000030C3000030C200D1
:102B5000831203138C1071088A00700E8300FE0E1E
:102B60007E0E0900C330F700CD30F600F60BB62D0F
:102B7000F70BB62DF20133300A168A11A7240A1674
:102B80008A111B30F7009E30F600F60BC52DF70BAF
:102B9000C52D0000F20133300A168A11A7240A1647
:102BA0008A11A630F600F60BD32D0000F201333067
:102BB0000A168A11A7240A168A11DE2DDF2D0000BD
:102BC000F2013C300A168A11A7240A168A11A6308F
:102BD000F600F60BE92D0000F20101300A168A1109
:102BE000A7240A168A110430F7003D30F600F60BD0
:102BF000F72DF70BF72DFC2DF2010C300A168A1178
:102C0000A7240A168A11A630F600F60B052E00003E
:102C10000800F701F51F0D2E0E2E152EF409F509EB
:102C2000F40A0319F50A0130F700F31F182E192EC4
:102C30001E2EF209F309F20A0319F30A720873044B
:102C40000319232E242E512E0130F600302E013090
:102C50000310F20DF30DFF3E031D282E0130F60781
:102C6000F31F332E342E272E73087502031D3A2EC0
:102C700072087402031C3D2E3E2E442E7208F4028C
:102C80007308031CF503F50201300310F30CF20C7A
:102C9000FF3E031D452E0130F602031D502E512E1E
:102CA000342E77080319552E562E5B2EF409F5099C
:102CB000F40A0319F50A7508F3007408F200080015
:102CC000831203130618652E662EBD2E07111211EE
:102CD00087140A168A1154240A168A119E30831208
:102CE0000313A0009030A1008030A2000A168A11C0
:102CF00032250A168A11123083120313A000903075
:102D0000A100C030A2000A168A1132250A168A11C3
:102D100083120313061C8D2E8E2E882E0715121576
:102D200087100A168A1154240A168A11EF3083126A
:102D30000313A0009030A1008030A2000A168A116F
:102D400032250A168A11793083120313A0009130BC
:102D5000A100C030A2000A168A1132250A168A1173
:102D6000463083120313A0009030A1009030A200DF
:102D70000A168A1132250A168A11080083120313D3
:102D8000A101F31FC42EC52ECC2EF209F309F20ABD
:102D90000319F30A0130A100F51FCF2ED02ED72E34
:102DA000F409F509F40A0319F50A0130A106A20194
:102DB000A301720873040319DE2EDF2E142F0130D5
:102DC000A000EB2E01300310F20DF30DFF3E031DAA
:102DD000E32E0130A007F31FEE2EEF2EE22E01307E
:102DE0000310A20DA30DFF3E031DF02E7308750204
:102DF000031DFC2E72087402031CFF2E002F072FE8
:102E00007208F4027308031CF503F5022214013062
:102E10000310F30CF20CFF3E031D082F0130A0023B
:102E2000031D132F142FEF2E21080319182F192F0C
:102E30001E2FA209A309A20A0319A30A2308F3005B
:102E40002208F2000800831203130608F2003F3044
:102E5000F2053F30720603192E2F2F2F3A2F7B08D1
:102E60000319332F342F3A2FFB01EC01ED017208C7
:102E7000EB008F2F3F307206031D3F2F402F582F3E
:102E80007B08031D442F452F582F0130FB006D0890
:102E9000803AFF0080307F02031D502F1E306C02ED
:102EA0000318532F542F8F2F831203136B08902F67
:102EB0007B08031D5C2F5D2F732F6D08803AFF0088
:102EC00080307F02031D662F1F306C020318692FAC
:102ED0006A2F732F013083120313EC070318ED0AD6
:102EE0000030ED078F2F7B08031D772F782F8F2F52
:102EF0001F30831203136C066D04031D802F812F76
:102F00008F2F37307206031D862F872F8F2F0130AA
:102F1000EC070318ED0A0030ED079930902F3F3091
:102F2000080083120313A8012808803EF800FF3030
:102F30000A168A1178240A168A11023083120313A2
:102F4000A7004530A600A930A500A50BA52FA60B0C
:102F5000A52FA70BA52F013083120313A80710304C
:102F60002802031CB42FB52F942F8430A00090307A
:102F7000A100C130A2000A168A1132250A168A1150
:102F8000243083120313A0009030A1009130A200DE
:102F90000A168A1132250A168A1183120313A9010F
:102FA0002908D03EF800FF300A168A1178240A1644
:102FB0008A11023083120313A7004530A600A930FE
:102FC000A500A50BE12FA60BE12FA70BE12F0130E8
:102FD00083120313A90710302902031CF02FF12FCD
:102FE000D02F333083120313A700BB30A600DF308D
:102FF000A500A50BF92FA60BF92FA70BF92F080099
:02400E00FB3F76
:00000001FF
